:100000000C9434000C943E000C943E000C943E0082
:100010000C943E000C943E000C943E000C943E0068
:100020000C943E000C943E000C943E000C943E0058
:100030000C943E000C943E000C943E000C943E0048
:100040000C943E000C943E000C943E000C943E0038
:100050000C943E000C943E000C943E000C943E0028
:100060000C943E000C943E0011241FBECFEFD8E04C
:10007000DEBFCDBF0E9486000C94DB000C94000014
:10008000219A82E8809380008AE18093810083EC4A
:1000900099E090938700809386008BEB90E090939B
:1000A000890080938800089523E0969587952A9586
:1000B000E1F79093890080938800089508950C9447
:1000C00040002FE38DE093E0215080409040E1F725
:1000D00000C000002FE38DE093E02150804090406D
:1000E000E1F700C000002FE38DE093E02150804055
:1000F0009040E1F700C000002FE38DE093E0215035
:1001000080409040E1F700C0000008950E94400048
:100110002FE38DE093E0215080409040E1F700C054
:100120000000E8E8F0E08AEF90E0918380832FE31D
:100130008DE093E0215080409040E1F700C0000046
:1001400088E391E0918380838BEB90E091838083BF
:100150002FE38DE093E0215080409040E1F700C014
:1001600000008DE790E0918380832FE38DE093E0A2
:10017000215080409040E1F700C000008EE390E005
:10018000918380832FE38DE093E021508040904065
:10019000E1F700C000008CE090E0918380832FE3C2
:1001A0008DE093E0215080409040E1F700C00000D6
:0A01B00090E080E00895F894FFCF7E
:00000001FF
