:100000000C9434000C943E000C943E000C943E0082
:100010000C943E000C943E000C943E000C943E0068
:100020000C943E000C943E000C943E000C943E0058
:100030000C943E000C943E000C943E000C943E0048
:100040000C943E000C943E000C943E000C943E0038
:100050000C943E000C943E000C943E000C943E0028
:100060000C943E000C943E0011241FBECFEFD8E04C
:10007000DEBFCDBF0E945F000C9472000C940000A4
:10008000219A229A82EA80938000E1E8F0E088E1F8
:10009000808383EC99E0909387008093860083ECC3
:1000A00090E0909389008093880086E990E0909397
:1000B0008B0080938A0080818260808308950E94F3
:1000C000400084E091E090938B0080938A00E3ED00
:1000D000F0E33197F1F700C00000019786399105F0
:0800E00091F7EFCFF894FFCF78
:00000001FF
