:100000000C9434000C943E000C943E000C943E0082
:100010000C943E000C943E000C943E000C943E0068
:100020000C943E000C943E000C943E000C943E0058
:100030000C943E000C943E000C943E000C943E0048
:100040000C943E000C943E000C943E000C943E0038
:100050000C943E000C943E000C943E000C943E0028
:100060000C943E000C943E0011241FBECFEFD8E04C
:10007000DEBFCDBF0E9489000C94F6000C940000F6
:1000800080E480937C0083E880937A0008959091C7
:100090007C00987F8770982B90937C0080917A00E9
:1000A000806480937A0080917A0086FDFCCF8091F5
:1000B0007800909179000895219A82E880938000D9
:1000C0008AE18093810083EC99E09093870080938C
:1000D00086000895CF93DF9300D000D0CDB7DEB770
:1000E000282F30E0A4EDB0E00E94E70024EB30E0E0
:1000F00040E050E00E94C500255B3F4F30938900EF
:10010000209388000F900F900F900F90DF91CF9168
:1001100008950E9440000E945C0085EB90E090935F
:10012000890080938800CAE5D0E080E00E94470003
:100130008C0181E00E9447009C0183E294EF0197CB
:10014000F1F700C00000021B130B980117FF04C059
:1001500022273327201B310B2F31310534F31016A2
:10016000110654F42596C739D10514F0C6E9D0E03C
:100170008C2F0E946A00D9CF012BB9F22597C43188
:10018000D105B4F7C4E1D0E0F3CFA1E21A2EAA1B47
:10019000BB1BFD010DC0AA1FBB1FEE1FFF1FA21737
:1001A000B307E407F50720F0A21BB30BE40BF50B34
:1001B000661F771F881F991F1A9469F760957095BD
:1001C000809590959B01AC01BD01CF010895A29F40
:1001D000B001B39FC001A39F700D811D1124911D1B
:1001E000B29F700D811D1124911D0895F894FFCFC9
:00000001FF
