:100000000C9434000C9449000C9449000C94490061
:100010000C9449000C9449000C9449000C9449003C
:100020000C9449000C9449000C9449000C9449002C
:100030000C9449000C9449000C9449000C9449001C
:100040000C9449000C9449000C9449000C9449000C
:100050000C9449000C9449000C9449000C944900FC
:100060000C9449000C94490011241FBECFEFD8E036
:10007000DEBFCDBF11E0A0E0B1E0EAE7F2E002C0F0
:1000800005900D92A630B107D9F70E94E8000C94B4
:100090003B010C940000219A229A82EA809380000E
:1000A000E1E8F0E088E1808383EC99E090938700B9
:1000B0008093860088EC90E090938900809388007C
:1000C00086E990E090938B0080938A008081826023
:1000D0008083089580E480937C0083E880937A0095
:1000E000089590917C00987F8770982B90937C0066
:1000F00080917A00806480937A0080917A0086FDF6
:10010000FCCF809178009091790008958091000152
:10011000909101010196853021E092076CF4909353
:100120000101809300018091000190910101909361
:100130008B0080938A00089584E091E0F0CF809155
:100140000001909101010197863991056CF090931F
:100150000101809300018091000190910101909331
:100160008B0080938A00089586E990E0F0CF80911B
:100170000201909103010197843691056CF09093F0
:1001800003018093020180910201909103019093F9
:10019000890080938800089584E690E0F0CF8091F4
:1001A00002019091030101968D3221E092076CF4D7
:1001B00090930301809302018091020190910301C9
:1001C000909389008093880008958CE291E0F0CFAD
:1001D0000E944B000E946A0080E00E947100EC01C6
:1001E00081E00E9471008C0182E00E9471006C012C
:1001F00083E00E9471007C01CE01800F911F960167
:100200002E0D3F1D821B930B9C0197FF04C02227DC
:100210003327281B390B40910401509105014217E7
:10022000530724F497FF21C00E949F00CC0DDD1DD1
:100230000E0D1F1DC01BD10BCE01D7FF04C0882798
:1002400099278C1B9D0B20910401309105012817E3
:10025000390724F4D7FF0CC00E94B70087EA91E663
:100260000197F1F700C00000B7CF0E948600DECFF3
:0A0270000E94CF00F3CFF894FFCFF7
:06027A009600C8003C00E4
:00000001FF
